:020000040000FA
:020000000528D1
:08000800292883160313870168
:100010008312031387018316031319309900831683
:1000200003138316031324309800831603138312DB
:100030000313803098008312031383120313C0301C
:100040008B0083120313831603130C1683160313FA
:1000500028280C1E0900831203138B014E309900CF
:100060003E20493099003E204C3099003E204130DE
:1000700099003E20593099003E2009003C30A000F4
:0E0080008230A100A10B4228A00B40280800EE
:02400E00313F40
:00000001FF
